{
  "contractName": "Voting",
  "abi": [
    {
      "constant": true,
      "inputs": [
        {
          "name": "candidateName",
          "type": "bytes32"
        }
      ],
      "name": "validCandidate",
      "outputs": [
        {
          "name": "",
          "type": "bool"
        }
      ],
      "payable": false,
      "stateMutability": "view",
      "type": "function"
    },
    {
      "constant": true,
      "inputs": [
        {
          "name": "",
          "type": "bytes32"
        }
      ],
      "name": "votesReceived",
      "outputs": [
        {
          "name": "",
          "type": "uint8"
        }
      ],
      "payable": false,
      "stateMutability": "view",
      "type": "function"
    },
    {
      "constant": true,
      "inputs": [
        {
          "name": "",
          "type": "uint256"
        }
      ],
      "name": "candidateList",
      "outputs": [
        {
          "name": "",
          "type": "bytes32"
        }
      ],
      "payable": false,
      "stateMutability": "view",
      "type": "function"
    },
    {
      "constant": true,
      "inputs": [
        {
          "name": "candidateName",
          "type": "bytes32"
        }
      ],
      "name": "totalVotesForCandidate",
      "outputs": [
        {
          "name": "",
          "type": "uint8"
        }
      ],
      "payable": false,
      "stateMutability": "view",
      "type": "function"
    },
    {
      "constant": false,
      "inputs": [
        {
          "name": "candidateName",
          "type": "bytes32"
        }
      ],
      "name": "voteForCandidate",
      "outputs": [],
      "payable": false,
      "stateMutability": "nonpayable",
      "type": "function"
    },
    {
      "inputs": [
        {
          "name": "candidateNames",
          "type": "bytes32[]"
        }
      ],
      "payable": false,
      "stateMutability": "nonpayable",
      "type": "constructor"
    }
  ],
  "bytecode": "0x6060604052341561000f57600080fd5b6040516103e03803806103e0833981016040528080518201919050508060019080519060200190610041929190610048565b50506100c0565b82805482825590600052602060002090810192821561008a579160200282015b82811115610089578251829060001916905591602001919060010190610068565b5b509050610097919061009b565b5090565b6100bd91905b808211156100b95760008160009055506001016100a1565b5090565b90565b610311806100cf6000396000f30060606040526004361061006d576000357c0100000000000000000000000000000000000000000000000000000000900463ffffffff168063392e6678146100725780637021939f146100b1578063b13c744b146100f2578063b3c4395b14610131578063cc9ab26714610172575b600080fd5b341561007d57600080fd5b610097600480803560001916906020019091905050610199565b604051808215151515815260200191505060405180910390f35b34156100bc57600080fd5b6100d66004808035600019169060200190919050506101ff565b604051808260ff1660ff16815260200191505060405180910390f35b34156100fd57600080fd5b610113600480803590602001909190505061021f565b60405180826000191660001916815260200191505060405180910390f35b341561013c57600080fd5b610156600480803560001916906020019091905050610243565b604051808260ff1660ff16815260200191505060405180910390f35b341561017d57600080fd5b610197600480803560001916906020019091905050610288565b005b600080600090505b6001805490508160ff1610156101f457826000191660018260ff168154811015156101c857fe5b9060005260206000209001546000191614156101e757600191506101f9565b80806001019150506101a1565b600091505b50919050565b60006020528060005260406000206000915054906101000a900460ff1681565b60018181548110151561022e57fe5b90600052602060002090016000915090505481565b600061024e82610199565b151561025957600080fd5b600080836000191660001916815260200190815260200160002060009054906101000a900460ff169050919050565b61029181610199565b151561029c57600080fd5b6001600080836000191660001916815260200190815260200160002060008282829054906101000a900460ff160192506101000a81548160ff021916908360ff160217905550505600a165627a7a723058206136f9744f07fd9fcbdfe5300d024aa8673e5d1ab2ff24eae9b800639883b7a60029",
  "source": "pragma solidity ^0.4.18;\n\ncontract Voting {\n  mapping (bytes32 => uint8) public votesReceived;\n\n  bytes32[] public candidateList;\n\n  function Voting(bytes32[] candidateNames) public {\n    candidateList = candidateNames;\n  }\n\n  function totalVotesForCandidate(bytes32 candidateName) view public returns (uint8) {\n    require(validCandidate(candidateName));\n    return votesReceived[candidateName];\n  }\n\n  function voteForCandidate(bytes32 candidateName) public {\n    require(validCandidate(candidateName));\n    votesReceived[candidateName] += 1;\n  }\n\n  function validCandidate(bytes32 candidateName) view public returns (bool) {\n    for (uint8 i = 0; i < candidateList.length; i++) {\n      if (candidateList[i] == candidateName) {\n        return true;\n      }\n    }\n\n    return false;\n  }\n}\n",
  "sourcePath": "/Users/jant/work/eth_voting/contracts/Voting.sol",
  "compiler": {
    "name": "solc",
    "version": "0.4.18+commit.9cf6e910.Emscripten.clang"
  },
  "schemaVersion": "1.0.1",
  "updatedAt": "2017-12-15T04:21:38.280Z"
}